:0400000007EF00F016
:0A0008007C8280ED0CF021EF15F072
:10100000003738392F3435362A3132332D20303DF0
:051010002B2569000022
:101016004750800B506E47504724526E46AE16EF2F
:1010260008F018EF08F019EF08F052805250D8B4C3
:101036001FEF08F021EF08F036EF08F05228D8A489
:1010460027EF08F029EF08F031EF08F0000E446EA4
:10105600000E456E000E466E000E476E468E000E62
:10106600476E3EEF08F0000E446E000E456E000E11
:10107600466E000E476E4B50800B516E5050511805
:10108600D8B448EF08F04AEF08F04BEF08F0508C60
:101096004B504B24516E4AAE53EF08F055EF08F013
:1010A60056EF08F051805150D8B45CEF08F05EEF6F
:1010B60008F073EF08F05128D8A464EF08F066EF43
:1010C60008F06EEF08F0000E486E000E496E000E36
:1010D6004A6E000E4B6E4A8E000E4B6E7BEF08F08A
:1010E600000E486E000E496E000E4A6E000E4B6EE4
:1010F6005250515CD8B082EF08F084EF08F0ABEFA5
:1011060008F050AC89EF08F08BEF08F08DEF08F08F
:10111600800E501A52C053F051C052F053C051F0D5
:1011260044C053F048C044F053C048F045C053F0A3
:1011360049C045F053C049F046C053F04AC046F096
:1011460053C04AF047C053F04BC047F053C04BF072
:10115600000E536E525051C04CF04D6A4C5E000E5C
:101166004D5A4DBEC0EF08F04D5009E11A0E4C5CC9
:10117600D8A0C0EF08F0C2EF08F0F9EF08F044502D
:10118600451046104710D8A4CBEF08F0CEEF08F074
:10119600010ECFEF08F0000E536E000E446E000EE7
:1011A600456E000E466E000E476E51C052F002EFBD
:1011B60009F053A0E1EF08F0E3EF08F0E9EF08F0DB
:1011C600D89053300109536EEBEF08F0D8905332A4
:1011D60044A0F0EF08F0F2EF08F0F3EF08F0538EBA
:1011E60047344732463245324432522A5150525CD5
:1011F600D8A000EF09F002EF09F0DCEF08F050BCD0
:1012060007EF09F009EF09F049EF09F05250D8A4A9
:101216000FEF09F011EF09F01BEF09F0000E446E15
:10122600000E456E000E466E000E476E6AEF0AF01F
:1012360048504426495045224A5046224B504722A0
:1012460047A028EF09F02AEF09F0D6EF09F053A0DE
:101256002FEF09F031EF09F037EF09F0D89053304E
:101266000109536E39EF09F0D890533244A03EEF8E
:1012760009F040EF09F041EF09F0538E4734473249
:10128600463245324432522AD6EF09F04850445C81
:10129600495045584A5046584750800A4C6E4B5064
:1012A600800A4C58D8B05AEF09F05CEF09F087EF86
:1012B60009F04450485C4C6E455049584D6E4650B6
:1012C6004A584E6E47504B584F6EFF0E4C24446E94
:1012D600FF0E4D20456EFF0E4E20466EFF0E4F2030
:1012E600476E800E501A536C5350D8A47DEF09F008
:1012F6007FEF09F08FEF09F0010E4426000E45221C
:10130600462247228FEF09F04850445E4950455A1D
:101316004A50465A4B50475A4450451046104710BB
:10132600D8A498EF09F09AEF09F0CFEF09F05350DF
:10133600D8A4A0EF09F0A2EF09F0CFEF09F0000E54
:10134600446E000E456E000E466E000E476E6AEF46
:101356000AF0D890443645364636473653AEB6EF91
:1013660009F0B8EF09F0B9EF09F0448053A0BEEFD9
:1013760009F0C0EF09F0C4EF09F0D8805336C6EF84
:1013860009F0D89053365250D8B4CCEF09F0CEEFCE
:1013960009F0CFEF09F0520646AED4EF09F0D6EFCA
:1013A60009F0ACEF09F0000E516E53AEDDEF09F017
:1013B600DFEF09F0F7EF09F053C04CF07F0E4C1643
:1013C600D8B4E8EF09F0EAEF09F0EEEF09F0010E04
:1013D600516EF7EF09F044A0F3EF09F0F5EF09F0CD
:1013E600F7EF09F0EAEF09F05150D8B4FDEF09F034
:1013F600FFEF09F02AEF0AF0010E4426000E4522FF
:101406004622472247A00AEF0AF00CEF0AF02AEF1D
:101416000AF044C04CF045C04DF046C04EF047C0FF
:101426004FF04F344F324E324D324C324CC044F0B6
:101436004DC045F04EC046F04FC047F05228D8B4D4
:1014460027EF0AF029EF0AF02AEF0AF0522A52286B
:10145600D8B430EF0AF032EF0AF03AEF0AF0525001
:10146600D8A438EF0AF03AEF0AF04CEF0AF0000E73
:10147600446E000E456E000E466E000E476E5250CC
:10148600D8A448EF0AF04AEF0AF04CEF0AF0000E33
:10149600506E52A051EF0AF053EF0AF056EF0AF0E1
:1014A600468E57EF0AF0469ED8905230476E50AEA1
:1014B6005FEF0AF061EF0AF062EF0AF0478E44C070
:1014C60044F045C045F046C046F047C047F012001C
:1014D6001550800B1E6E15501524246E14AE76EF33
:1014E6000AF078EF0AF079EF0AF024802450D8B495
:1014F6007FEF0AF081EF0AF094EF0AF02428D8A4CF
:1015060087EF0AF089EF0AF091EF0AF0000E126EEB
:10151600000E136E000E146E000E156E148E9CEFE8
:101526000AF0000E126E000E136E000E146E000E00
:10153600156E1950800B1E1A19501924236E18AEF9
:10154600A7EF0AF0A9EF0AF0AAEF0AF023802350CA
:10155600D8B4B0EF0AF0B2EF0AF0C5EF0AF02328CC
:10156600D8A4B8EF0AF0BAEF0AF0C2EF0AF0000EFC
:10157600166E000E176E000E186E000E196E188E7F
:10158600CDEF0AF0000E166E000E176E000E186EE6
:10159600000E196E2350D8B4D3EF0AF0D5EF0AF037
:1015A600DDEF0AF02450D8A4DBEF0AF0DDEF0AF0F5
:1015B600E7EF0AF0000E126E000E136E000E146EA8
:1015C600000E156E7FEF0CF018501202F3CF29F0C3
:1015D600F4CF2AF029501F6E206A216A226A2A5007
:1015E600256E266A276A286A17501302F3CF29F058
:1015F600F4CF2AF029501F26000E20222122222273
:101606002A502526000E26222722282216501402AA
:10161600F3CF29F0F4CF2AF029501F26000E2022FE
:10162600212222222A502526000E2622272228227F
:1016360021C022F020C021F01FC020F01F6A1650E2
:101646001302F3CF29F0F4CF2AF029501F262A508F
:101656002022000E2122000E222217501202F3CF62
:1016660029F0F4CF2AF029501F262A502022000EF6
:101676002122000E222221C022F020C021F01FC00C
:1016860020F01F6A16501202F3CF29F0F4CF2AF089
:1016960029501F262A502022000E2122000E222227
:1016A60018501302F3CF29F0F4CF2AF0295025263B
:1016B6002A502622000E2722000E28221750140236
:1016C600F3CF29F0F4CF2AF0295025262A502622D6
:1016D600000E2722000E282218501402F3CF29F0FC
:1016E600F4CF2AF029501A6E2A501B6E1C6A1D6A06
:1016F6001CC01DF01BC01CF01AC01BF01A6A1A5041
:1017060025261B5026221C5027221D5028221FC08A
:101716001AF020C01BF021C01CF022C01DF0190ECB
:101726009AEF0BF0D8901D321C321B321A32E82E7B
:1017360095EF0BF01A5025261B5026221C50272207
:101746001D50282221C022F020C021F01FC020F009
:101756001F6A235024C01AF01B6A1A26000E1B2289
:10176600820E1A24296EFF0E1B202A6ED0EF0BF074
:10177600D890253626362736283622AEC5EF0BF00A
:10178600C7EF0BF0C8EF0BF02580D8901F36203638
:10179600213622362906D8A02A0627AED5EF0BF029
:1017A600D7EF0BF0BBEF0BF0000E236E22AEDEEF91
:1017B6000BF0E0EF0BF004EF0CF0FF0E1F141A6EA7
:1017C600FF0E20141B6EFF0E21141C6E7F0E2214BA
:1017D6001D6E1A501B101C101D10D8B4F5EF0BF01F
:1017E600F7EF0BF0FBEF0BF0010E236E04EF0CF09E
:1017F60025A000EF0CF002EF0CF004EF0CF0F7EF71
:101806000BF02350D8B40AEF0CF00CEF0CF030EFCD
:101816000CF0010E2526000E26222722282228A0BB
:1018260017EF0CF019EF0CF030EF0CF025C01AF0A2
:1018360026C01BF027C01CF028C01DF01D341D3229
:101846001C321B321A321AC025F01BC026F01CC0EF
:1018560027F01DC028F0294A2A2A2ABE3BEF0CF0A1
:101866002A5008E12928D8A03BEF0CF03DEF0CF0F8
:1018760047EF0CF0000E256E000E266E800E276ECA
:101886007F0E286E75EF0CF02ABE54EF0CF02A502E
:1018960006E12904D8B052EF0CF054EF0CF060EFDB
:1018A6000CF0000E256E000E266E000E276E000E42
:1018B600286E000E1E6E75EF0CF029C024F0FF0E88
:1018C6002516FF0E26167F0E2716000E281624A0B4
:1018D6006FEF0CF071EF0CF072EF0CF0278ED890D2
:1018E6002430286E1E50281225C012F026C013F090
:1018F60027C014F028C015F012000600FACF02F037
:10190600FBCF03F0F2A88AEF0CF08CEF0CF095EF0A
:101916000CF0F2A291EF0CF093EF0CF095EF0CF0B7
:1019260017EC16F0F0A69AEF0CF09CEF0CF0A5EF72
:101936000CF0F0A0A1EF0CF0A3EF0CF0A5EF0CF06B
:1019460015EC16F0F0A8AAEF0CF0ACEF0CF0B5EF22
:101956000CF0F0A2B1EF0CF0B3EF0CF0B5EF0CF019
:1019660013EC16F0F2A6BAEF0CF0BCEF0CF0D7EFC2
:101976000CF0F2A0C1EF0CF0C3EF0CF0D7EF0CF0B7
:1019860081A8C8EF0CF0CAEF0CF0D7EF0CF07A0480
:10199600D8A4D0EF0CF0D2EF0CF0D7EF0CF0000E7D
:1019A6007A6E000EE8EC15F0F2A6DCEF0CF0DEEF36
:1019B6000CF0F9EF0CF0F2A0E3EF0CF0E5EF0CF011
:1019C600F9EF0CF081B8EAEF0CF0ECEF0CF0F9EF60
:1019D6000CF07A50D8A4F2EF0CF0F4EF0CF0F9EF1B
:1019E6000CF0010E7A6E010EE8EC15F0F2A6FEEF91
:1019F6000CF000EF0DF01BEF0DF0F2A005EF0DF06F
:101A060007EF0DF01BEF0DF081AA0CEF0DF00EEFB6
:101A16000DF01BEF0DF07904D8A414EF0DF016EFBE
:101A26000DF01BEF0DF0000E796E000EDBEC15F0DD
:101A3600F2A620EF0DF022EF0DF03DEF0DF0F2A033
:101A460027EF0DF029EF0DF03DEF0DF081BA2EEFE7
:101A56000DF030EF0DF03DEF0DF07950D8A436EFD4
:101A66000DF038EF0DF03DEF0DF0010E796E010E21
:101A7600DBEC15F0F2A642EF0DF044EF0DF05FEF50
:101A86000DF0F2A049EF0DF04BEF0DF05FEF0DF00A
:101A960081AC50EF0DF052EF0DF05FEF0DF07804D2
:101AA600D8A458EF0DF05AEF0DF05FEF0DF0000ED1
:101AB600786E000ECEEC15F0F2A664EF0DF066EF30
:101AC6000DF081EF0DF0F2A06BEF0DF06DEF0DF064
:101AD60081EF0DF081BC72EF0DF074EF0DF081EF28
:101AE6000DF07850D8A47AEF0DF07CEF0DF081EF71
:101AF6000DF0010E786E010ECEEC15F0F2A686EF13
:101B06000DF088EF0DF0A3EF0DF0F2A08DEF0DF0C4
:101B16008FEF0DF0A3EF0DF081AE94EF0DF096EF81
:101B26000DF0A3EF0DF07704D8A49CEF0DF09EEF17
:101B36000DF0A3EF0DF0000E776E000EC1EC15F060
:101B4600F2A6A8EF0DF0AAEF0DF0C5EF0DF0F2A08A
:101B5600AFEF0DF0B1EF0DF0C5EF0DF081BEB6EFB2
:101B66000DF0B8EF0DF0C5EF0DF07750D8A4BEEF2D
:101B76000DF0C0EF0DF0C5EF0DF0010E776E010E02
:101B8600C1EC15F09DACCAEF0DF0CCEF0DF0D6EF21
:101B96000DF09EACD1EF0DF0D3EF0DF0D6EF0DF0BA
:101BA6009E9C1DEC16F0F2AADBEF0DF0DDEF0DF0BA
:101BB600E6EF0DF0F2A4E2EF0DF0E4EF0DF0E6EF44
:101BC6000DF002EC16F09DA0EBEF0DF0EDEF0DF031
:101BD600F6EF0DF09EA0F2EF0DF0F4EF0DF0F6EF3C
:101BE6000DF0FCEC15F09DA2FBEF0DF0FDEF0DF0F6
:101BF60006EF0EF09EA202EF0EF004EF0EF006EFD7
:101C06000EF008EC16F0A0A20BEF0EF00DEF0EF0A2
:101C160016EF0EF0A1A212EF0EF014EF0EF016EF73
:101C26000EF0F5EC15F09DA41BEF0EF01DEF0EF077
:101C360026EF0EF09EA422EF0EF024EF0EF026EF14
:101C46000EF01BEC16F0A0A02BEF0EF02DEF0EF011
:101C560036EF0EF0A1A032EF0EF034EF0EF036EFB5
:101C66000EF019EC16F09DA83BEF0EF03DEF0EF0CE
:101C760046EF0EF09EA842EF0EF044EF0EF046EF50
:101C86000EF00FEC16F09DAA4BEF0EF04DEF0EF096
:101C960056EF0EF09EAA52EF0EF054EF0EF056EFEE
:101CA6000EF01FEC16F09DA65BEF0EF05DEF0EF04A
:101CB60066EF0EF09EA662EF0EF064EF0EF066EF92
:101CC6000EF0A9EC15F0A0A66BEF0EF06DEF0EF07E
:101CD60076EF0EF0A1A672EF0EF074EF0EF076EF2F
:101CE6000EF011EC16F003C0FBFF02C0FAFF7C9267
:101CF60011002E50800B3B6E2E502E24426E2DAEC0
:101D060087EF0EF089EF0EF08AEF0EF04280425018
:101D1600D8B490EF0EF092EF0EF0A7EF0EF0422837
:101D2600D8A498EF0EF09AEF0EF0A2EF0EF0000E88
:101D36002B6E000E2C6E000E2D6E000E2E6E2D8E4E
:101D4600000E2E6EAFEF0EF0000E2B6E000E2C6EF8
:101D5600000E2D6E000E2E6E3250800B3B1A325046
:101D66003224436E31AEBAEF0EF0BCEF0EF0BDEF8B
:101D76000EF043804350D8B4C3EF0EF0C5EF0EF01B
:101D8600DAEF0EF04328D8A4CBEF0EF0CDEF0EF02D
:101D9600D5EF0EF0000E2F6E000E306E000E316E77
:101DA600000E326E318E000E326EE2EF0EF0000E35
:101DB6002F6E000E306E000E316E000E326E2F50FA
:101DC600301031103210D8A4EBEF0EF0EDEF0EF01C
:101DD60005EF0FF0000E2B6E000E2C6E000E2D6E12
:101DE600000E2E6E800E2D127F0E2E123B502E12DE
:101DF6002BC02BF02CC02CF02DC02DF02EC02EF0B9
:101E060048EF10F04250D8A40BEF0FF00DEF0FF093
:101E160017EF0FF0000E2B6E000E2C6E000E2D6EBF
:101E2600000E2E6E48EF10F0435042C033F0346A75
:101E3600335E000E345A7F0E33243C6E000E34207F
:101E46003D6E2BC037F02CC038F02DC039F02EC0B7
:101E56003AF0000E2B6E000E2C6E000E2D6E000E4C
:101E66002E6E000E3E6E000E3F6E000E406E000E91
:101E7600416E000E436E78EF0FF04350D8B446EF34
:101E86000FF048EF0FF05FEF0FF0D8903736383687
:101E960039363A36D8902B362C362D362E3641AE7C
:101EA60057EF0FF059EF0FF05AEF0FF02B80D89045
:101EB6003E363F36403641362F50375C3050385824
:101EC6003150395832503A58D8A06CEF0FF06EEFB7
:101ED6000FF077EF0FF0418C2F50375E3050385AA5
:101EE6003150395A32503A5A432A190E43647EEF1A
:101EF6000FF080EF0FF040EF0FF037503810391029
:101F06003A10D8B489EF0FF08BEF0FF0A3EF0FF074
:101F16003E80A3EF0FF0D8902B362C362D362E367A
:101F260041AE98EF0FF09AEF0FF09BEF0FF02B807A
:101F3600D8903E363F36403641363C06D8A03D0660
:101F46002DAEA8EF0FF0AAEF0FF08EEF0FF0000EF8
:101F5600436E41AEB1EF0FF0B3EF0FF0D7EF0FF0D6
:101F6600FF0E3E14336EFF0E3F14346EFF0E401408
:101F7600356E7F0E4114366E3350341035103610E0
:101F8600D8B4C8EF0FF0CAEF0FF0CEEF0FF0010E86
:101F9600436ED7EF0FF02BA0D3EF0FF0D5EF0FF076
:101FA600D7EF0FF0CAEF0FF04350D8B4DDEF0FF0C4
:101FB600DFEF0FF003EF10F0010E2B26000E2C22A0
:101FC6002D222E222EA0EAEF0FF0ECEF0FF003EFFA
:101FD60010F02BC033F02CC034F02DC035F02EC0DD
:101FE60036F03634363235323432333233C02BF0B3
:101FF60034C02CF035C02DF036C02EF03C4A3D2AB8
:102006003DBE0EEF10F03D5008E13C28D8A00EEF83
:1020160010F010EF10F01BEF10F0000E3D6E3C6854
:10202600000E2B6E000E2C6E000E2D6E000E2E6E08
:102036003DBE28EF10F03D5006E13C04D8B026EF37
:1020460010F028EF10F036EF10F0000E3D6E000E87
:102056003C6E000E2B6E000E2C6E000E2D6E000ECA
:102066002E6E000E3B6E3CC042F042A03DEF10F0DB
:102076003FEF10F042EF10F02D8E43EF10F02D9E43
:10208600D89042302E6EF9EF0EF012000C6E0C5006
:10209600D8B450EF10F052EF10F074EF10F007BE06
:1020A60059EF10F057EF10F074EF10F004C008F07D
:1020B60005C009F006C00AF007C00BF0081E091E8D
:1020C6000A1E0B1E082A000E09220A220B2208C02D
:1020D6000EF009C00FF00AC010F00BC011F07CEF33
:1020E60010F004C00EF005C00FF006C010F007C0D7
:1020F60011F00450051006100710D8A485EF10F053
:1021060087EF10F091EF10F0000E046E000E056ED2
:10211600000E066E000E076E22EF11F0960E0D6E83
:102126009BEF10F00D2AD890113210320F320E327A
:10213600000E0E14086E000E0F14096E000E101419
:102146000A6EFE0E11140B6E085009100A100B10C1
:10215600D8A4B0EF10F0B2EF10F095EF10F0C0EF8A
:1021660010F00D2A010E0E26000E0F22102211224B
:10217600D890113210320F320E32000E0E14086E45
:10218600000E0F14096E000E10140A6EFF0E1114C5
:102196000B6E085009100A100B10D8A4D5EF10F0DA
:1021A600D7EF10F0B4EF10F0DFEF10F00D06D89077
:1021B6000E360F361036113610BEE4EF10F0E6EF8D
:1021C60010F0EEEF10F0020E0D60ECEF10F0EEEFF7
:1021D60010F0D9EF10F00DB0F3EF10F0F5EF10F0AE
:1021E600F6EF10F0109ED8900D320DC008F0096A77
:1021F6000A6A0B6A08C00BF00A6A096A086A08507C
:102206000E1209500F120A5010120B5011120C50D8
:10221600D8B410EF11F012EF11F01AEF11F007BE5B
:1022260019EF11F017EF11F01AEF11F0118E0EC021
:1022360004F00FC005F010C006F011C007F0120040
:1022460062506310D8A42AEF11F02CEF11F030EF92
:1022560011F0000E656EDAEF11F0C69A20EE03F06B
:102266006250D9266350DA22DFA03CEF11F03EEF30
:1022760011F046EF11F062C05EF063C05FF097ECBC
:1022860013F089EF11F020EE03F06250D926635067
:10229600DA22DFB051EF11F053EF11F089EF11F0B0
:1022A60020EE03F06250D9266350DA22DFA85EEFF3
:1022B60011F060EF11F063EF11F0C58E71EF11F0C0
:1022C60020EE03F06250D9266350DA22DFB86EEFB3
:1022D60011F070EF11F071EF11F0C59EC69EC69C0D
:1022E600C68820EE04F06250D9266350DA22DF5009
:1022F600C86E20EE02F06250D9266350DA22DF5013
:10230600646EC6506418F00B6418C66E9486948882
:1023160020EE03F06250D9266350DA22DFB296EF40
:1023260011F098EF11F09BEF11F0C79EA9EF11F095
:1023360020EE03F06250D9266350DA22DFA2A6EF20
:1023460011F0A8EF11F0A9EF11F0C78E20EE03F0FF
:102356006250D9266350DA22DFA4B4EF11F0B6EF4B
:1023660011F0B9EF11F0C78CC7EF11F020EE03F0B2
:102376006250D9266350DA22DFB4C4EF11F0C6EFFB
:1023860011F0C7EF11F0C78E20EE05F06250D92686
:102396006350DA22DECFBFF0DDCFC0F062C004F0BA
:1023A60063C005F08EEC15F0C68A010E656E6550A9
:1023B6001200010E0C6E04500510D8B4E5EF11F0B2
:1023C600E7EF11F0F8EF11F004C0D9FF05C0DAFF0E
:1023D600DF30E832E832070B066E070E0664F6EFCA
:1023E60011F0F8EF11F05BEF12F0000E0C6E7CEFBF
:1023F60012F004C0D9FF05C0DAFFDF30E832E83258
:10240600070B066E010E076E062A0CEF12F0D89027
:102416000736062E0AEF12F00750FF0A086E04C0B0
:10242600D9FF05C0DAFFDF50070B096E0950020D10
:10243600940EF324D96E000EF420DA6EDECF0AF085
:10244600DDCF0BF00AC0D9FF0BC0DAFF0850DF164C
:102456007CEF12F004C0D9FF05C0DAFFDF30E832A6
:10246600E832070B066E010E076E062A3DEF12F0E4
:10247600D8900736062E3BEF12F004C0D9FF05C0F0
:10248600DAFFDF50070B086E0850020D940EF32496
:10249600D96E000EF420DA6EDECF09F0DDCF0AF039
:1024A60009C0D9FF0AC0DAFF0750DF127CEF12F02D
:1024B60004C0D9FF05C0DAFFDFBC64EF12F067EF96
:1024C60012F0010E68EF12F0000E066E076A075052
:1024D600000AD8B471EF12F0F8EF11F00650000AB6
:1024E600D8B4FCEF11F0010AD8B42DEF12F0F8EFD2
:1024F60011F00C501200010E0D6E04500510D8B4E8
:1025060087EF12F089EF12F09AEF12F004C0D9FFAC
:1025160005C0DAFFDF30E832E832070B076E070E38
:10252600076498EF12F09AEF12F0FDEF12F0000E2A
:102536000D6E12EF13F004C0D9FF05C0DAFFDF30CD
:10254600E832E832070B076E010E086E072AAEEF77
:1025560012F0D8900836072EACEF12F00850FF0A9A
:10256600096E04C0D9FF05C0DAFFDF50070B0A6EFB
:102576000A50020D8A0EF324D96E000EF420DA6E8C
:10258600DECF0BF0DDCF0CF00BC0D9FF0CC0DAFFAD
:102596000950DF1612EF13F004C0D9FF05C0DAFFA9
:1025A600DF30E832E832070B076E010E086E072AA5
:1025B600DFEF12F0D8900836072EDDEF12F004C0D8
:1025C600D9FF05C0DAFFDF50070B096E0950020D6F
:1025D6008A0EF324D96E000EF420DA6EDECF0AF0EE
:1025E600DDCF0BF00AC0D9FF0BC0DAFF0850DF12AF
:1025F60012EF13F00650076E086A0850000AD8B4A6
:1026060007EF13F09AEF12F00750000AD8B49EEFC6
:1026160012F0010AD8B4CFEF12F09AEF12F00D5073
:102626001200563457345D6E5D50D8A41DEF13F07A
:102636001FEF13F029EF13F0000E546E000E556EC7
:10264600000E566E000E576E96EF13F054C058F0FB
:1026560055C059F056C05AF057C05BF0200E39EFFE
:1026660013F0D8905B325A3259325832E82E34EF92
:1026760013F058505C6E568EFF0E5416FF0E55160C
:10268600FF0E5616000E5716960E5D5E5DBE50EF97
:1026960013F04EEF13F066EF13F05D50800A970FBC
:1026A600D8B058EF13F05AEF13F05CEF13F01FEFAA
:1026B60013F0D89057325632553254325D3E5CEFA5
:1026C60013F07EEF13F01F0E5D646CEF13F06EEFE8
:1026D60013F076EF13F01FEF13F0D89054365536FB
:1026E600563657365D065D50D8A47CEF13F07EEF64
:1026F60013F070EF13F05C50D8B484EF13F086EF4C
:1027060013F08EEF13F0571E561E551E546C000E16
:1027160055225622572254C054F055C055F056C083
:1027260056F057C057F0120020EE02F05E50D92640
:102736005F50DA22DF50606EC6506018F00B6018EA
:10274600C66E000E486E000E496E800E4A6EBF0EB3
:102756004B6E000E166E000E176E800E186E400E33
:10276600196E5EC0D9FF5FC0DAFFDECF60F0DDCF45
:1027760061F060C004F061C005F0066A076A000EE9
:1027860049EC10F004C012F005C013F006C014F0B6
:1027960007C015F06BEC0AF012C02FF013C030F032
:1027A60014C031F015C032F0000E2B6E240E2C6EC4
:1027B600F40E2D6E4A0E2E6E7CEC0EF02BC044F0FD
:1027C6002CC045F02DC046F02EC047F00BEC08F0AB
:1027D60044C054F045C055F046C056F047C057F0C7
:1027E60014EC13F05450C86E12009E0E626E000E6A
:1027F600636E23EC11F07B0E126E000E136E37EC37
:1028060014F0610E6A18D8A40BEF14F00DEF14F053
:1028160022EF14F07B0E0E6E000E0F6E75EC14F0A8
:10282600060E0001F06F130EEF6FAD0EE82EFED709
:10283600EF2FFCD7F02FFAD700D004EF14F0630E79
:102846006A18D8A429EF14F02BEF14F033EF14F024
:102856007B0E0E6E000E0F6EB0EC14F004EF14F04B
:1028660004EF14F007EF00F0010E156E125013106E
:10287600D8A440EF14F042EF14F046EF14F0000E27
:10288600156E73EF14F074C016F012C0D9FF13C0A2
:10289600DAFFDF500F0B146E16501418F80B1418CD
:1028A600166E12C0D9FF13C0DAFFDF38070B146E9D
:1028B60014461446144616501418C70B1418166EF0
:1028C600169C12C0D9FF13C0DAFFDFAE02D0168EF7
:1028D60001D0169E160E0E6E000E0F6EEBEC14F067
:1028E600155012000E500F10D8A47CEF14F07EEF96
:1028F60014F080EF14F0AFEF14F073C011F00EC0B7
:10290600D9FF0FC0DAFFDF500F0B106E11501018F1
:10291600F80B1018116E0EC0D9FF0FC0DAFFDF38A2
:10292600070B106E10461046104611501018C70BB4
:102936001018116E119C0EC0D9FF0FC0DAFFDFAE62
:1029460002D0118E01D0119E110E046E000E056E7E
:10295600010E066E7EEC12F012000E500F10D8A477
:10296600B7EF14F0B9EF14F0BBEF14F0EAEF14F080
:1029760072C011F00EC0D9FF0FC0DAFFDF500F0B87
:10298600106E11501018F80B1018116E0EC0D9FFEA
:102996000FC0DAFFDF38070B106E104610461046E0
:1029A60011501018C70B1018116E119C0EC0D9FFCC
:1029B6000FC0DAFFDFAE02D0118E01D0119E110ECC
:1029C600046E000E056E000E066E7EEC12F012000E
:1029D6000E500F10D8B4F2EF14F0F4EF14F005EF28
:1029E60015F00EC0D9FF0FC0DAFFDF30E832E8324B
:1029F600070B106E070E106403EF15F005EF15F0C8
:102A060009EF15F0000E116E1FEF15F00EC004F061
:102A16000FC005F0DCEC11F0116E0EC004F00FC013
:102A260005F00EC0D9FF0FC0DAFF000EDFBE010EA3
:102A3600066E7EEC12F0116E11501200E00EF66E6C
:102A46002A0EF76E000EF86E00EE80F010EE3BF0E8
:102A56000900F5CFEEFFE550E150FAE1180EF66EEB
:102A66002C0EF76E000EF86E00EE77F010EE05F005
:102A76000900F5CFEEFFE550E150FAE100EEBBF0BC
:102A8600340EEE6AE806FDE100EE66F0110EEE6A1F
:102A9600E806FDE17C907C920001F8EF13F0C69801
:102AA600C7B458EF15F05AEF15F06DEF15F0C7BA29
:102AB6005FEF15F061EF15F06DEF15F0C950C7A087
:102AC60067EF15F069EF15F062EF15F0C9CF6AF000
:102AD6006EEF15F0C750C6881200800F810F820F67
:102AE600830F840F890F8A0F8B0F8C0F8D0F920F18
:102AF600930F940F950F960F00000602600000A436
:102B06002A00000000323A030B131B232B333B022F
:052B16000A121A222A38
:102B1C009D869E96A086A19620EE0AF00450D9269A
:102B2C000550DA22DECFBBF0DDCFBCF020EE07F093
:102B3C000450D9260550DA22DECFBDF0DDCFBEF031
:102B4C00F28EF28C12009E960001BD51BE11D8B4CB
:102B5C00B2EF15F0B4EF15F0C0EF15F002D8C0EFDE
:102B6C0015F00500FA6EBD51FD6EBE51FE6EFF6A8A
:102B7C00FA5012001200016EF2900150D8A4C9EF65
:102B8C0015F0CBEF15F0CDEF15F0CDEF15F01200E1
:102B9C00016EF2900150D8A4D6EF15F0D8EF15F0D5
:102BAC00DAEF15F0DAEF15F01200016EF290015029
:102BBC00D8A4E3EF15F0E5EF15F0E7EF15F0E7EF2C
:102BCC0015F01200016EF2900150D8A4F0EF15F040
:102BDC00F2EF15F0F4EF15F0F4EF15F01200A192EE
:102BEC000001CA51B36EC9C0B2FF12009E9067506B
:102BFC00CF6E66C0CEFF1200F2946950D76E68C0DB
:102C0C00D6FF12009E926DC0CCFF12000101010193
:012C1C0003B4
:102C1E009D981200A1961200F0921200F0901200F0
:102C2E00F2921200A19012009E9412009E9C12002D
:022C3E00120082
:020000040020DA
:08000000FFFFFFFFFFFFFFFF00
:020000040030CA
:0E000000FF021F1EFF8181FF0FC00FE00F40A7
:00000001FF
