:0400000007EF00F016
:0A0008006A82D8ED0EF0A9EF17F0A0
:10100000003738392F3435362A3132332D20303DF0
:051010002B2569000022
:101016000001E151800BEA6FE151E125EC6FE0AF91
:1010260017EF08F019EF08F01AEF08F0EC81EC5111
:10103600D8B420EF08F022EF08F037EF08F0EC29DB
:10104600D8A428EF08F02AEF08F032EF08F0000ED7
:10105600DE6F000EDF6F000EE06F000EE16FE08FB7
:10106600000EE16F3FEF08F0000EDE6F000EDF6F3F
:10107600000EE06F000EE16FE551800BEB6FEA5159
:10108600EB19D8B449EF08F04BEF08F04CEF08F035
:10109600EA8DE551E525EB6FE4AF54EF08F056EF26
:1010A60008F057EF08F0EB81EB51D8B45DEF08F08C
:1010B6005FEF08F074EF08F0EB29D8A465EF08F0AD
:1010C60067EF08F06FEF08F0000EE26F000EE36FB7
:1010D600000EE46F000EE56FE48F000EE56F7CEF07
:1010E60008F0000EE26F000EE36F000EE46F000ED4
:1010F600E56FEC51EB5DD8B083EF08F085EF08F0B3
:10110600ACEF08F0EAAD8AEF08F08CEF08F08EEF4E
:1011160008F0800EEA1BECC0EDF0EBC0ECF0EDC081
:10112600EBF0DEC0EDF0E2C0DEF0EDC0E2F0DFC0D5
:10113600EDF0E3C0DFF0EDC0E3F0E0C0EDF0E4C0B9
:10114600E0F0EDC0E4F0E1C0EDF0E5C0E1F0EDC0A7
:10115600E5F0000EED6FEC51EBC0E6F0E76BE65FF5
:10116600000EE75BE7BFC1EF08F0E75109E11A0E91
:10117600E65DD8A0C1EF08F0C3EF08F0FAEF08F07B
:10118600DE51DF11E011E111D8A4CCEF08F0CFEF6A
:1011960008F0010ED0EF08F0000EED6F000EDE6FC6
:1011A600000EDF6F000EE06F000EE16FEBC0ECF09B
:1011B60003EF09F0EDA1E2EF08F0E4EF08F0EAEF43
:1011C60008F0D890ED310109ED6FECEF08F0D890FA
:1011D600ED33DEA1F1EF08F0F3EF08F0F4EF08F0DD
:1011E600ED8FE135E133E033DF33DE33EC2BEB51CA
:1011F600EC5DD8A001EF09F003EF09F0DDEF08F090
:10120600EABD08EF09F00AEF09F04AEF09F0EC51E0
:10121600D8A410EF09F012EF09F01CEF09F0000E48
:10122600DE6F000EDF6F000EE06F000EE16F6BEFFA
:101236000AF0E251DE27E351DF23E451E023E551D2
:10124600E123E1A129EF09F02BEF09F0D7EF09F02F
:10125600EDA130EF09F032EF09F038EF09F0D89040
:10126600ED310109ED6F3AEF09F0D890ED33DEA1CB
:101276003FEF09F041EF09F042EF09F0ED8FE1355C
:10128600E133E033DF33DE33EC2BD7EF09F0E25105
:10129600DE5DE351DF59E451E059E151800AE66F22
:1012A600E551800AE659D8B05BEF09F05DEF09F029
:1012B60088EF09F0DE51E25DE66FDF51E359E76F33
:1012C600E051E459E86FE151E559E96FFF0EE62573
:1012D600DE6FFF0EE721DF6FFF0EE821E06FFF0EE6
:1012E600E921E16F800EEA1BED6DED51D8A47EEF8A
:1012F60009F080EF09F090EF09F0010EDE27000EED
:10130600DF23E023E12390EF09F0E251DE5FE351B2
:10131600DF5BE451E05BE551E15BDE51DF11E0119B
:10132600E111D8A499EF09F09BEF09F0D0EF09F08D
:10133600ED51D8A4A1EF09F0A3EF09F0D0EF09F021
:10134600000EDE6F000EDF6F000EE06F000EE16F25
:101356006BEF0AF0D890DE37DF37E037E137EDAFD5
:10136600B7EF09F0B9EF09F0BAEF09F0DE81EDA1A8
:10137600BFEF09F0C1EF09F0C5EF09F0D880ED37EE
:10138600C7EF09F0D890ED37EC51D8B4CDEF09F09E
:10139600CFEF09F0D0EF09F0EC07E0AFD5EF09F099
:1013A600D7EF09F0ADEF09F0000EEB6FEDAFDEEF12
:1013B60009F0E0EF09F0F8EF09F0EDC0E6F07F0E76
:1013C600E617D8B4E9EF09F0EBEF09F0EFEF09F013
:1013D600010EEB6FF8EF09F0DEA1F4EF09F0F6EF7E
:1013E60009F0F8EF09F0EBEF09F0EB51D8B4FEEF96
:1013F60009F000EF0AF02BEF0AF0010EDE27000ECF
:10140600DF23E023E123E1A10BEF0AF00DEF0AF061
:101416002BEF0AF0DEC0E6F0DFC0E7F0E0C0E8F050
:10142600E1C0E9F0E935E933E833E733E633E6C00E
:10143600DEF0E7C0DFF0E8C0E0F0E9C0E1F0EC295B
:10144600D8B428EF0AF02AEF0AF02BEF0AF0EC2BBB
:10145600EC29D8B431EF0AF033EF0AF03BEF0AF08B
:10146600EC51D8A439EF0AF03BEF0AF04DEF0AF041
:10147600000EDE6F000EDF6F000EE06F000EE16FF4
:10148600EC51D8A449EF0AF04BEF0AF04DEF0AF001
:10149600000EEA6FECA152EF0AF054EF0AF057EF94
:1014A6000AF0E08F58EF0AF0E09FD890EC31E16F38
:1014B600EAAF60EF0AF062EF0AF063EF0AF0E18F3D
:1014C600DEC0DEF0DFC0DFF0E0C0E0F0E1C0E1F05A
:1014D600120096EF0CF0AC98AC94B896000EE26F42
:1014E600000EE36F800EE46FBF0EE56F000E286EF0
:1014F600000E296E800E2A6E420E2B6E20EE02F032
:10150600F851D926F951DA22DECFFAF0DDCFFBF019
:10151600FAC016F0FBC017F0186A196A000E91ECB3
:1015260012F016C024F017C025F018C026F019C016
:1015360027F0C3EC0CF024C041F025C042F026C0D1
:1015460043F027C044F0000E3D6E240E3E6EF40EAE
:101556003F6E4A0E406EC4EC10F03DC0DEF03EC059
:10156600DFF03FC0E0F040C0E1F00BEC08F0DEC079
:10157600EEF0DFC0EFF0E0C0F0F0E1C0F1F034ECE7
:1015860015F00001EE51AF6EC2EF0CF0AC98AC84D2
:10159600B896000EE26F000EE36F800EE46FBF0E8A
:1015A600E56F000E286E000E296E800E2A6E410E23
:1015B6002B6E20EE02F0F851D926F951DA22DECF51
:1015C600FAF0DDCFFBF0FAC016F0FBC017F0186A90
:1015D600196A000E91EC12F016C024F017C025F01F
:1015E60018C026F019C027F0C3EC0CF024C041F057
:1015F60025C042F026C043F027C044F0000E3D6EE1
:10160600240E3E6EF40E3F6E4A0E406EC4EC10F091
:101616003DC0DEF03EC0DFF03FC0E0F040C0E1F08C
:101626000BEC08F0DEC0EEF0DFC0EFF0E0C0F0F04B
:10163600E1C0F1F034EC15F00001EE51AF6EC2EFEF
:101646000CF0AC98AC94B886000EE26F000EE36F17
:10165600800EE46FBF0EE56F000E286E000E296E39
:10166600800E2A6E410E2B6E20EE02F0F851D9261E
:10167600F951DA22DECFFAF0DDCFFBF0FAC016F030
:10168600FBC017F0186A196A000E91EC12F016C02A
:1016960024F017C025F018C026F019C027F0C3ECB7
:1016A6000CF024C041F025C042F026C043F027C00C
:1016B60044F0000E3D6E240E3E6EF40E3F6E4A0E52
:1016C600406EC4EC10F03DC0DEF03EC0DFF03FC01F
:1016D600E0F040C0E1F00BEC08F0DEC0EEF0DFC059
:1016E600EFF0E0C0F0F0E1C0F1F034EC15F0EEC040
:1016F600FCF0EFC0FDF0FCC0AFFF0001FD51B06E85
:10170600C2EF0CF0AC98AC84B886000EE26F000E07
:10171600E36F800EE46FBF0EE56F000E286E000EBD
:10172600296E800E2A6E400E2B6E20EE02F0F851C6
:10173600D926F951DA22DECFFAF0DDCFFBF0FAC076
:1017460016F0FBC017F0186A196A000E91EC12F039
:1017560016C024F017C025F018C026F019C027F0CF
:10176600C3EC0CF024C041F025C042F026C043F083
:1017760027C044F0000E3D6E240E3E6EF40E3F6E02
:101786004A0E406EC4EC10F03DC0DEF03EC0DFF005
:101796003FC0E0F040C0E1F00BEC08F0DEC0EEF038
:1017A600DFC0EFF0E0C0F0F0E1C0F1F034EC15F08E
:1017B600EEC0FCF0EFC0FDF07EEF0BF0AC88B89603
:1017C600000EE26F000EE36F800EE46FBF0EE56F52
:1017D600000E286E000E296E800E2A6E400E2B6EAD
:1017E60020EE02F0F851D926F951DA22DECFFAF0CE
:1017F600DDCFFBF0FAC016F0FBC017F0186A196AC5
:10180600000E91EC12F016C024F017C025F018C097
:1018160026F019C027F0C3EC0CF024C041F025C017
:1018260042F026C043F027C044F0000E3D6E240E61
:101836003E6EF40E3F6E4A0E406EC4EC10F03DC094
:10184600DEF03EC0DFF03FC0E0F040C0E1F00BEC60
:1018560008F0DEC0EEF0DFC0EFF0E0C0F0F0E1C06F
:10186600F1F034EC15F00001EE51AF6EC2EF0CF062
:10187600AC88B886000EE26F000EE36F800EE46F50
:10188600BF0EE56F000E286E000E296E800E2A6EC2
:10189600400E2B6E20EE02F0F851D926F951DA22CD
:1018A600DECFFAF0DDCFFBF0FAC016F0FBC017F082
:1018B600186A196A000E91EC12F016C024F017C0CF
:1018C60025F018C026F019C027F0C3EC0CF024C090
:1018D60041F025C042F026C043F027C044F0000E78
:1018E6003D6E240E3E6EF40E3F6E4A0E406EC4EC04
:1018F60010F03DC0DEF03EC0DFF03FC0E0F040C07B
:10190600E1F00BEC08F0DEC0EEF0DFC0EFF0E0C077
:10191600F0F0E1C0F1F034EC15F0EEC0FCF0EFC0F1
:10192600FDF07EEF0BF0000120EE04F0F851D92611
:10193600F951DA22DF50FA6FFB6BFB51000AD8B47B
:10194600A7EF0CF0C2EF0CF0FA51000AD8B46EEF14
:101956000AF0010AD8B4C9EF0AF0030AD8B424EF92
:101966000BF0010AD8B485EF0BF0070AD8B4E1EF03
:101976000BF0010AD8B43BEF0CF0C2EF0CF01200EA
:101986002750800B306E27502724366E26AECEEFBA
:101996000CF0D0EF0CF0D1EF0CF036803650D8B406
:1019A600D7EF0CF0D9EF0CF0ECEF0CF03628D8A4FA
:1019B600DFEF0CF0E1EF0CF0E9EF0CF0000E246E17
:1019C600000E256E000E266E000E276E268EF4EF94
:1019D6000CF0000E246E000E256E000E266E000E14
:1019E600276E2B50800B301A2B502B24316E2AAECB
:1019F600FFEF0CF001EF0DF002EF0DF031803150EA
:101A0600D8B408EF0DF00AEF0DF01DEF0DF03128F8
:101A1600D8A410EF0DF012EF0DF01AEF0DF0000E36
:101A2600286E000E296E000E2A6E000E2B6E2A8E70
:101A360025EF0DF0000E286E000E296E000E2A6EA0
:101A4600000E2B6E3150D8B42BEF0DF02DEF0DF0AC
:101A560035EF0DF03650D8A433EF0DF035EF0DF01D
:101A66003FEF0DF0000E246E000E256E000E266E62
:101A7600000E276ED7EF0EF02A502402F3CF3BF06C
:101A8600F4CF3CF03B50326E336A346A356A3C50D0
:101A9600376E386A396A3A6A29502502F3CF3BF025
:101AA600F4CF3CF03B503226000E3322342235224E
:101AB6003C503726000E382239223A222850260278
:101AC600F3CF3BF0F4CF3CF03B503226000E3322EE
:101AD600342235223C503726000E382239223A224B
:101AE60034C035F033C034F032C033F0326A285097
:101AF6002502F3CF3BF0F4CF3CF03B5032263C506E
:101B06003322000E3422000E352229502402F3CF50
:101B16003BF0F4CF3CF03B5032263C503322000ED3
:101B26003422000E352234C035F033C034F032C0D2
:101B360033F0326A28502402F3CF3BF0F4CF3CF066
:101B46003B5032263C503322000E3422000E352202
:101B56002A502502F3CF3BF0F4CF3CF03B5037261A
:101B66003C503822000E3922000E3A222950260215
:101B7600F3CF3BF0F4CF3CF03B5037263C503822B5
:101B8600000E3922000E3A222A502602F3CF3BF0ED
:101B9600F4CF3CF03B502C6E3C502D6E2E6A2F6AD3
:101BA6002EC02FF02DC02EF02CC02DF02C6A2C50FC
:101BB60037262D5038222E5039222F503A2232C045
:101BC6002CF033C02DF034C02EF035C02FF0190E96
:101BD600F2EF0DF0D8902F322E322D322C32E82E25
:101BE600EDEF0DF02C5037262D5038222E5039228D
:101BF6002F503A2234C035F033C034F032C033F0BF
:101C0600326A315036C02CF02D6A2C26000E2D2259
:101C1600820E2C243B6EFF0E2D203C6E28EF0EF01C
:101C2600D8903736383639363A3635AE1DEF0EF09F
:101C36001FEF0EF020EF0EF03780D8903236333695
:101C4600343635363B06D8A03C0639AE2DEF0EF0BD
:101C56002FEF0EF013EF0EF0000E316E35AE36EFAD
:101C66000EF038EF0EF05CEF0EF0FF0E32142C6E15
:101C7600FF0E33142D6EFF0E34142E6E7F0E3514A8
:101C86002F6E2C502D102E102F10D8B44DEF0EF0B5
:101C96004FEF0EF053EF0EF0010E316E5CEF0EF0CB
:101CA60037A058EF0EF05AEF0EF05CEF0EF04FEF44
:101CB6000EF03150D8B462EF0EF064EF0EF088EFFC
:101CC6000EF0010E3726000E382239223A223AA0AB
:101CD6006FEF0EF071EF0EF088EF0EF037C02CF0BC
:101CE60038C02DF039C02EF03AC02FF02F342F32E5
:101CF6002E322D322C322CC037F02DC038F02EC0AB
:101D060039F02FC03AF03B4A3C2A3CBE93EF0EF026
:101D16003C5008E13B28D8A093EF0EF095EF0EF06B
:101D26009FEF0EF0000E376E000E386E800E396E85
:101D36007F0E3A6ECDEF0EF03CBEACEF0EF03C508F
:101D460006E13B04D8B0AAEF0EF0ACEF0EF0B8EF08
:101D56000EF0000E376E000E386E000E396E000E55
:101D66003A6E000E306ECDEF0EF03BC036F0FF0E31
:101D76003716FF0E38167F0E3916000E3A1636A0A5
:101D8600C7EF0EF0C9EF0EF0CAEF0EF0398ED890FD
:101D960036303A6E30503A1237C024F038C025F04B
:101DA60039C026F03AC027F012000600FACF10F02C
:101DB600FBCF11F0D9CF12F0DACF13F0F3CF14F036
:101DC600F4CF15F0F2A8EAEF0EF0ECEF0EF0F5EF17
:101DD6000EF0F2A2F1EF0EF0F3EF0EF0F5EF0EF0CB
:101DE600B6EC18F0F0A6FAEF0EF0FCEF0EF005EFE9
:101DF6000FF0F0A001EF0FF003EF0FF005EF0FF07B
:101E0600B4EC18F0F0A80AEF0FF00CEF0FF015EF96
:101E16000FF0F0A211EF0FF013EF0FF015EF0FF028
:101E2600B2EC18F0F2A61AEF0FF01CEF0FF037EF36
:101E36000FF0F2A021EF0FF023EF0FF037EF0FF0C6
:101E460081A828EF0FF02AEF0FF037EF0FF06804A4
:101E5600D8A430EF0FF032EF0FF037EF0FF0000E8F
:101E6600686E000E7CEC18F0F2A63CEF0FF03EEF29
:101E76000FF059EF0FF0F2A043EF0FF045EF0FF020
:101E860059EF0FF081B84AEF0FF04CEF0FF059EF12
:101E96000FF06850D8A452EF0FF054EF0FF059EF3F
:101EA6000FF0010E686E010E7CEC18F0F2A65EEFE4
:101EB6000FF060EF0FF07BEF0FF0F2A065EF0FF081
:101EC60067EF0FF07BEF0FF081AA6CEF0FF06EEF6C
:101ED6000FF07BEF0FF06704D8A474EF0FF076EFE6
:101EE6000FF07BEF0FF0000E676E000E6FEC18F030
:101EF600F2A680EF0FF082EF0FF09DEF0FF0F2A049
:101F060087EF0FF089EF0FF09DEF0FF081BA8EEF9C
:101F16000FF090EF0FF09DEF0FF06750D8A496EFFB
:101F26000FF098EF0FF09DEF0FF0010E676E010EA8
:101F36006FEC18F0F2A6A2EF0FF0A4EF0FF0BFEFD0
:101F46000FF0F2A0A9EF0FF0ABEF0FF0BFEF0FF01D
:101F560081ACB0EF0FF0B2EF0FF0BFEF0FF06604F9
:101F6600D8A4B8EF0FF0BAEF0FF0BFEF0FF0000EE6
:101F7600666E000E62EC18F0F2A6C4EF0FF0C6EF24
:101F86000FF0E1EF0FF0F2A0CBEF0FF0CDEF0FF077
:101F9600E1EF0FF081BCD2EF0FF0D4EF0FF0E1EFDD
:101FA6000FF06650D8A4DAEF0FF0DCEF0FF0E1EF98
:101FB6000FF0010E666E010E62EC18F0F2A6E6EF67
:101FC6000FF0E8EF0FF003EF10F0F2A0EDEF0FF0D7
:101FD600EFEF0FF003EF10F081AEF4EF0FF0F6EF36
:101FE6000FF003EF10F06504D8A4FCEF0FF0FEEF3E
:101FF6000FF003EF10F0000E656E000E55EC18F0B2
:10200600F2A608EF10F00AEF10F025EF10F0F2A09C
:102016000FEF10F011EF10F025EF10F081BE16EF64
:1020260010F018EF10F025EF10F06550D8A41EEF51
:1020360010F020EF10F025EF10F0010E656E010E86
:1020460055EC18F09DAC2AEF10F02CEF10F036EF9F
:1020560010F09EAC31EF10F033EF10F036EF10F0C9
:102066009E9CBCEC18F0F2AA3BEF10F03DEF10F08E
:1020760046EF10F0F2A442EF10F044EF10F046EFF6
:1020860010F0A3EC18F09DA04BEF10F04DEF10F000
:1020960056EF10F09EA052EF10F054EF10F056EFEE
:1020A60010F09CEC18F09DA25BEF10F05DEF10F0C5
:1020B60066EF10F09EA262EF10F064EF10F066EF8C
:1020C60010F0A9EC18F0A0A26BEF10F06DEF10F075
:1020D60076EF10F0A1A272EF10F074EF10F076EF29
:1020E60010F095EC18F09DA47BEF10F07DEF10F04A
:1020F60086EF10F09EA482EF10F084EF10F086EFCA
:1021060010F0BAEC18F0A0A08BEF10F08DEF10F0E5
:1021160096EF10F0A1A092EF10F094EF10F096EF6A
:1021260010F0B8EC18F09DA89BEF10F09DEF10F0A2
:10213600A6EF10F09EA8A2EF10F0A4EF10F0A6EF05
:1021460010F0B0EC18F09DAAABEF10F0ADEF10F068
:10215600B6EF10F09EAAB2EF10F0B4EF10F0B6EFA3
:1021660010F0FFEC17F015C0F4FF14C0F3FF13C016
:10217600DAFF12C0D9FF11C0FBFF10C0FAFF6A9246
:1021860011004050800B4D6E40504024546E3FAEBF
:10219600CFEF10F0D1EF10F0D2EF10F05480545082
:1021A600D8B4D8EF10F0DAEF10F0EFEF10F05428B3
:1021B600D8A4E0EF10F0E2EF10F0EAEF10F0000E16
:1021C6003D6E000E3E6E000E3F6E000E406E3F8E60
:1021D600000E406EF7EF10F0000E3D6E000E3E6EE4
:1021E600000E3F6E000E406E4450800B4D1A445058
:1021F6004424556E43AE02EF11F004EF11F005EFE3
:1022060011F055805550D8B40BEF11F00DEF11F0C9
:1022160022EF11F05528D8A413EF11F015EF11F0A5
:102226001DEF11F0000E416E000E426E000E436E61
:10223600000E446E438E000E446E2AEF11F0000E1F
:10224600416E000E426E000E436E000E446E41500B
:10225600421043104410D8A433EF11F035EF11F0BB
:102266004DEF11F0000E3D6E000E3E6E000E3F6EFD
:10227600000E406E800E3F127F0E40124D504012EF
:102286003DC03DF03EC03EF03FC03FF040C040F094
:1022960090EF12F05450D8A453EF11F055EF11F00F
:1022A6005FEF11F0000E3D6E000E3E6E000E3F6EAB
:1022B600000E406E90EF12F0555054C045F0466A3D
:1022C600455E000E465A7F0E45244E6E000E462091
:1022D6004F6E3DC049F03EC04AF03FC04BF040C093
:1022E6004CF0000E3D6E000E3E6E000E3F6E000E70
:1022F600406E000E506E000E516E000E526E000EB5
:10230600536E000E556EC0EF11F05550D8B48EEFD7
:1023160011F090EF11F0A7EF11F0D89049364A3638
:102326004B364C36D8903D363E363F36403653AE69
:102336009FEF11F0A1EF11F0A2EF11F03D80D890C0
:1023460050365136523653364150495C42504A58FF
:1023560043504B5844504C58D8A0B4EF11F0B6EF48
:1023660011F0BFEF11F0538C4150495E42504A5A6A
:1023760043504B5A44504C5A552A190E5564C6EFD1
:1023860011F0C8EF11F088EF11F049504A104B10C8
:102396004C10D8B4D1EF11F0D3EF11F0EBEF11F0F0
:1023A6005080EBEF11F0D8903D363E363F36403642
:1023B60053AEE0EF11F0E2EF11F0E3EF11F03D80E4
:1023C600D89050365136523653364E06D8A04F0660
:1023D6003FAEF0EF11F0F2EF11F0D6EF11F0000E74
:1023E600556E53AEF9EF11F0FBEF11F01FEF12F03F
:1023F600FF0E5014456EFF0E5114466EFF0E52141A
:10240600476E7F0E5314486E4550461047104810CD
:10241600D8B410EF12F012EF12F016EF12F0010E10
:10242600556E1FEF12F03DA01BEF12F01DEF12F0DC
:102436001FEF12F012EF12F05550D8B425EF12F03C
:1024460027EF12F04BEF12F0010E3D26000E3E2252
:102456003F22402240A032EF12F034EF12F04BEF51
:1024660012F03DC045F03EC046F03FC047F040C0C8
:1024760048F04834483247324632453245C03DF08E
:1024860046C03EF047C03FF048C040F04E4A4F2A93
:102496004FBE56EF12F04F5008E14E28D8A056EF27
:1024A60012F058EF12F063EF12F0000E4F6E4E6806
:1024B600000E3D6E000E3E6E000E3F6E000E406E2C
:1024C6004FBE70EF12F04F5006E14E04D8B06EEFDB
:1024D60012F070EF12F07EEF12F0000E4F6E000E4B
:1024E6004E6E000E3D6E000E3E6E000E3F6E000EEE
:1024F600406E000E4D6E4EC054F054A085EF12F0A3
:1025060087EF12F08AEF12F03F8E8BEF12F03F9EAC
:10251600D8905430406E41EF11F012001E6E1E50DE
:10252600D8B498EF12F09AEF12F0BCEF12F019BE81
:10253600A1EF12F09FEF12F0BCEF12F016C01AF0E6
:1025460017C01BF018C01CF019C01DF01A1E1B1E68
:102556001C1E1D1E1A2A000E1B221C221D221AC01A
:1025660020F01BC021F01CC022F01DC023F0C4EFD8
:1025760012F016C020F017C021F018C022F019C0C2
:1025860023F01650171018101910D8A4CDEF12F01A
:10259600CFEF12F0D9EF12F0000E166E000E176E86
:1025A600000E186E000E196E6AEF13F0960E1F6E6F
:1025B600E3EF12F01F2AD890233222322132203242
:1025C600000E20141A6E000E21141B6E000E22142B
:1025D6001C6EFE0E23141D6E1A501B101C101D10AF
:1025E600D8A4F8EF12F0FAEF12F0DDEF12F008EFD0
:1025F60013F01F2A010E2026000E2122222223225A
:10260600D8902332223221322032000E20141A6E44
:10261600000E21141B6E000E22141C6EFF0E2314D6
:102626001D6E1A501B101C101D10D8A41DEF13F0A0
:102636001FEF13F0FCEF12F027EF13F01F06D890F0
:10264600203621362236233622BE2CEF13F02EEF0B
:1026560013F036EF13F0020E1F6034EF13F036EF6F
:1026660013F021EF13F01FB03BEF13F03DEF13F023
:102676003EEF13F0229ED8901F321FC01AF01B6A3D
:102686001C6A1D6A1AC01DF01C6A1B6A1A6A1A5057
:1026960020121B5021121C5022121D5023121E50B4
:1026A600D8B458EF13F05AEF13F062EF13F019BED7
:1026B60061EF13F05FEF13F062EF13F0238E20C08B
:1026C60016F021C017F022C018F023C019F012002E
:1026D600010E1E6E16501710D8B474EF13F076EF75
:1026E60013F087EF13F016C0D9FF17C0DAFFDF30FB
:1026F600E832E832070B186E070E186485EF13F000
:1027060087EF13F0EAEF13F0000E1E6E0BEF14F0D6
:1027160016C0D9FF17C0DAFFDF30E832E832070B00
:10272600186E010E196E182A9BEF13F0D890193601
:10273600182E99EF13F01950FF0A1A6E16C0D9FF1A
:1027460017C0DAFFDF50070B1B6E1B50020DC40EBD
:10275600F324D96E000EF420DA6EDECF1CF0DDCF46
:102766001DF01CC0D9FF1DC0DAFF1A50DF160BEF93
:1027760014F016C0D9FF17C0DAFFDF30E832E832AE
:10278600070B186E010E196E182ACCEF13F0D890AD
:102796001936182ECAEF13F016C0D9FF17C0DAFF84
:1027A600DF50070B1A6E1A50020DC40EF324D96EB1
:1027B600000EF420DA6EDECF1BF0DDCF1CF01BC05E
:1027C600D9FF1CC0DAFF1950DF120BEF14F016C048
:1027D600D9FF17C0DAFFDFBCF3EF13F0F6EF13F003
:1027E600010EF7EF13F0000E186E196A1950000A61
:1027F600D8B400EF14F087EF13F01850000AD8B4DD
:102806008BEF13F0010AD8B4BCEF13F087EF13F087
:102816001E501200010E1F6E16501710D8B416EF78
:1028260014F018EF14F029EF14F016C0D9FF17C0F2
:10283600DAFFDF30E832E832070B196E070E19644B
:1028460027EF14F029EF14F08CEF14F0000E1F6E32
:10285600A1EF14F016C0D9FF17C0DAFFDF30E83257
:10286600E832070B196E010E1A6E192A3DEF14F0A5
:10287600D8901A36192E3BEF14F01A50FF0A1B6E29
:1028860016C0D9FF17C0DAFFDF50070B1C6E1C50AD
:10289600020DBA0EF324D96E000EF420DA6EDECFE6
:1028A6001DF0DDCF1EF01DC0D9FF1EC0DAFF1B5084
:1028B600DF16A1EF14F016C0D9FF17C0DAFFDF301C
:1028C600E832E832070B196E010E1A6E192A6EEFFE
:1028D60014F0D8901A36192E6CEF14F016C0D9FFE2
:1028E60017C0DAFFDF50070B1B6E1B50020DBA0E26
:1028F600F324D96E000EF420DA6EDECF1CF0DDCFA5
:102906001DF01CC0D9FF1DC0DAFF1A50DF12A1EF5F
:1029160014F01850196E1A6A1A50000AD8B496EFB5
:1029260014F029EF14F01950000AD8B42DEF14F062
:10293600010AD8B45EEF14F029EF14F01F5012000C
:1029460001500210D8B4AAEF14F0ACEF14F0BDEFAA
:1029560014F001C0D9FF02C0DAFFDF30E832E832F6
:10296600070B046E070E0464BBEF14F0BDEF14F002
:102976001EEF15F033EF15F001C0D9FF02C0DAFFE4
:10298600DF30E832E832070B046E010E056E042ACA
:10299600CFEF14F0D8900536042ECDEF14F0055085
:1029A600FF0A066E01C0D9FF02C0DAFFDF50070B2F
:1029B600076E0750020DBA0EF324D96E000EF420EE
:1029C600DA6EDECF08F0DDCF09F008C0D9FF09C006
:1029D600DAFF0650DF1633EF15F001C0D9FF02C04B
:1029E600DAFFDF30E832E832070B046E010E056EBF
:1029F600042A00EF15F0D8900536042EFEEF14F0E9
:102A060001C0D9FF02C0DAFFDF50070B066E065081
:102A1600020DBA0EF324D96E000EF420DA6EDECF64
:102A260007F0DDCF08F007C0D9FF08C0DAFF055070
:102A3600DF1233EF15F00350046E056A0550000AE5
:102A4600D8B428EF15F0BDEF14F00450000AD8B43E
:102A5600BFEF14F0010AD8B4F0EF14F0BDEF14F094
:102A660012000001F035F135F76FF751D8A43EEFAB
:102A760015F040EF15F04AEF15F0000EEE6F000E60
:102A8600EF6F000EF06F000EF16FB7EF15F0EEC0AE
:102A9600F2F0EFC0F3F0F0C0F4F0F1C0F5F0200E64
:102AA6005AEF15F0D890F533F433F333F233E82EBA
:102AB60055EF15F0F251F66FF08FFF0EEE17FF0E81
:102AC600EF17FF0EF017000EF117960EF75FF7BF20
:102AD60071EF15F06FEF15F087EF15F0F751800ADB
:102AE600970FD8B079EF15F07BEF15F07DEF15F065
:102AF60040EF15F0D890F133F033EF33EE33F73F74
:102B06007DEF15F09FEF15F01F0EF7658DEF15F0B1
:102B16008FEF15F097EF15F040EF15F0D890EE37E0
:102B2600EF37F037F137F707F751D8A49DEF15F0D7
:102B36009FEF15F091EF15F0F651D8B4A5EF15F00B
:102B4600A7EF15F0AFEF15F0F11FF01FEF1FEE6DB9
:102B5600000EEF23F023F123EEC0EEF0EFC0EFF00E
:102B6600F0C0F0F0F1C0F1F01200AB8820EE07F0F3
:102B76001650D9261750DA22DECF84F0DDCF85F045
:102B860020EE09F01650D9261750DA22DECF82F051
:102B9600DDCF83F020EE0BF01650D9261750DA223F
:102BA600DECF80F0DDCF81F020EE01F01650D92681
:102BB6001750DA22DFA4E2EF15F0E4EF15F0E7EFA5
:102BC60015F09D8AF28EF28C20EE01F01650D92671
:102BD6001750DA22DFA2F2EF15F0F4EF15F0F7EF57
:102BE60015F0AB8C05EF16F020EE01F01650D92645
:102BF6001750DA22DFB202EF16F004EF16F005EFF7
:102C060016F0AB9C1200610E016E000E026E2FECE8
:102C160018F037EF16F0690E0A6E000E0B6EC9EC4F
:102C260016F0640E46EC18F0060E0F6E130E0E6EBE
:102C3600AE0EE82EFED70E2EFCD70F2EFAD74DEF8E
:102C460016F0690E0A6E000E0B6E04EC17F0620E9B
:102C560046EC18F017EF16F0690E0A6E000E0B6EB2
:102C660004EC17F04DEF16F061C00EF062C00FF0E5
:102C76000F50000AD8B442EF16F02FEF16F00E50A0
:102C8600610AD8B424EF16F0020AD8B40EEF16F093
:102C96002FEF16F01200010E276E24502510D8A42F
:102CA60057EF16F059EF16F05DEF16F0000E276E8F
:102CB6008AEF16F060C028F024C0D9FF25C0DAFFDD
:102CC600DF500F0B266E28502618F80B2618286E94
:102CD60024C0D9FF25C0DAFFDF38070B266E26464B
:102CE6002646264628502618C70B2618286E289CE6
:102CF60024C0D9FF25C0DAFFDFAE02D0288E01D06E
:102D0600289E280E206E000E216E3FEC17F02750ED
:102D160012000001FE51FF11D8A494EF16F096EFB1
:102D260016F098EF16F0C8EF16F0AB9E948E948CC2
:102D3600FEC0F8F0FFC0F9F06CEC0AF0FEC0D9FF57
:102D4600FFC0DAFF0001DFA0ABEF16F0ADEF16F023
:102D5600B3EF16F0FEC016F0FFC017F075EC17F0D3
:102D6600000120EE01F0FE51D926FF51DA22DFA044
:102D7600BFEF16F0C1EF16F0C7EF16F0FEC016F063
:102D8600FFC017F0B8EC15F0AB8E12000A500B100E
:102D9600D8A4D0EF16F0D2EF16F0D4EF16F003EF6A
:102DA60017F05FC00DF00AC0D9FF0BC0DAFFDF5085
:102DB6000F0B0C6E0D500C18F80B0C180D6E0AC08C
:102DC600D9FF0BC0DAFFDF38070B0C6E0C460C463A
:102DD6000C460D500C18C70B0C180D6E0D9C0AC036
:102DE600D9FF0BC0DAFFDFAE02D00D8E01D00D9EEB
:102DF6000D0E016E000E026E010E036EA3EC14F0B2
:102E060012000A500B10D8A40BEF17F00DEF17F0B5
:102E16000FEF17F03EEF17F05EC00DF00AC0D9FFB6
:102E26000BC0DAFFDF500F0B0C6E0D500C18F80BB1
:102E36000C180D6E0AC0D9FF0BC0DAFFDF38070B7E
:102E46000C6E0C460C460C460D500C18C70B0C1895
:102E56000D6E0D9C0AC0D9FF0BC0DAFFDFAE02D0A3
:102E66000D8E01D00D9E0D0E016E000E026E000E2F
:102E7600036EA3EC14F0120020502110D8B446EFD4
:102E860017F048EF17F059EF17F020C0D9FF21C00F
:102E9600DAFFDF30E832E832070B226E070E2264D3
:102EA60057EF17F059EF17F05DEF17F0000E236E8E
:102EB60073EF17F020C016F021C017F06BEC13F07B
:102EC600236E20C016F021C017F020C0D9FF21C004
:102ED600DAFF000EDFBE010E186E0DEC14F0236E45
:102EE60023501200AC8A20EE05F01650D926175052
:102EF600DA22DECF86F0DDCF87F016C0D9FF17C005
:102F0600DAFFDFA489EF17F08BEF17F08EEF17F0DB
:102F16009D88F28EF28C16C0D9FF17C0DAFFDFA2A9
:102F260097EF17F099EF17F09CEF17F0AC8CA8EF1E
:102F360017F016C0D9FF17C0DAFFDFB2A5EF17F0FA
:102F4600A7EF17F0A8EF17F0AC9C1200300EF66E44
:102F5600300EF76E000EF86E00EEB0F010EE2EF0AA
:102F66000900F5CFEEFFE550E150FAE15A0EF66E94
:102F7600310EF76E000EF86E00EE65F010EE05F0FD
:102F86000900F5CFEEFFE550E150FAE100EE80F0E2
:102F9600300EEE6AE806FDE100EE56F00F0EEE6A20
:102FA600E806FDE16A906A92000189EF18F0040EC6
:102FB6000101036FB00E026F020E046F0C0E076F55
:102FC6002C0E086F000E056F000E066F000E096FBF
:102FD600000E0A6F000E0B6F000E0C6F009301932C
:102FE6000081018100850185000E0001FE6F010E42
:102FF600FF6F8CEC16F01200000184518511D8B4D5
:1030060007EF18F009EF18F017EF18F002D815EFD0
:1030160018F00500FA6E8451FD6E8551FE6EFF6A4A
:10302600FA50120017EF18F01200800F810F820F6E
:10303600830F840F890F8A0F8B0F8C0F8D0F920FC2
:10304600930F940F950F960F323A030B131B232BF6
:10305600333B020A121A222A9EAA34EF18F036EFE0
:1030660018F03EEF18F001C0D9FF02C0DAFFAECF6C
:10307600DFFF45EF18F09EBA43EF18F045EF18F062
:1030860045EF18F01200016E9EA84CEF18F04EEFB7
:1030960018F054EF18F000F000F001C0ADFF54EF47
:1030A60018F01200016EF2900150D8A45DEF18F0EE
:1030B6005FEF18F061EF18F061EF18F01200016E83
:1030C600F2900150D8A46AEF18F06CEF18F06EEF8A
:1030D60018F06EEF18F01200016EF2900150D8A4AD
:1030E60077EF18F079EF18F07BEF18F07BEF18F018
:1030F6001200016EF2900150D8A484EF18F086EF0A
:1031060018F088EF18F088EF18F01200DAEC17F0D4
:10311600690E246E000E256E4EEC16F091EF18F037
:1031260007EF00F0A19200018951B36E88C0B2FF8B
:1031360012009E9000018F51CF6E8EC0CEFF1200FE
:10314600F2945750D76E56C0D6FF12009E9259C0C1
:09315600CCFF120001010101137C
:103160009D981200F0921200F0901200F29212005C
:0C317000A19012009E9412009E9C120080
:020000040020DA
:08000000FFFFFFFFFFFFFFFF00
:020000040030CA
:0E000000FF021F1EFF8181FF0FC00FE00F40A7
:00000001FF
